:020000040000FA
:040000008031D5284E
:100008007E1480310B1D09280A28BF2800302000E3
:10001800BC078030BD3D0030BE3D0030BF3D87305D
:100028003D0293303E3B03303F3B031C1C281D28F8
:1000380048280130C0070030C13D0030A10087309A
:10004800A2009330A3000330A4002108BC022208B8
:10005800BD3B2308BE3B2408BF3B05304102A0300E
:1000680003194002031C39283A284828C001C10155
:1000780006304402031C412842284428C401482869
:100088000130A1002108C407A501A6012000260807
:10009800F1002508F0000A30F2000030F300823148
:1000A800362280318E302000A1002330A200700853
:1000B800210786007108223D8700403FA300413F89
:1000C800A40024084102031D6B2823084002031CD6
:1000D8006E286F28AD282608F1002508F0000A30A0
:1000E800F2000030F3008231362280319030200057
:1000F800A1002330A2007008210786007108223D64
:100108008700403FA300413FA40024084102031D8B
:100118008F2823084002031892289328AD28260820
:10012800F1002508F0000A30F2000030F3008231B7
:10013800362280318C302000A1002330A2007008C4
:100148002107A3007108223DA4002308C200240847
:10015800C3000130A5070030A63D2608803AA1005B
:1001680080302102031DBA280A302502031CBD284D
:10017800BE284A280B112000911EC328C428CA286B
:100188008031FF20803120009112D328111ECD2804
:10019800CE28D328823155228031200011127E10BA
:1001A80009008031D728313084008330850012005F
:1001B800C8001200C9001200CA001200CB001200C9
:1001C800CC008C308400233085006430FE00003081
:1001D800FF008331052380313830840000308500EA
:1001E8001030FE000030FF008331052380317E107F
:1001F800200081317B29200045190329042912296F
:10020800C519072908291229233023001906031DB7
:100218000E290F291229200045157A292000451D8D
:10022800162917297A29C5191A291B296229230091
:100238001908FD007D082000A00024302006031DB9
:10024800262927292F294908F9004808F800833169
:10025800112380317A2926302006031D34293529B7
:100268003D294308F9004208F80083311D238031F5
:100278007A293E302006031D422943294F298C3014
:10028800F8002330F9004C08FD007D08FA0082319F
:10029800882280317A293C302006031D54295529AB
:1002A80061298C30F8002330F9004C08FD007D08E6
:1002B800FA008231AE2280317A297A29451C6529D3
:1002C800662961290130B802031D6B296C296E2942
:1002D8004510C511390886003A0887002300190817
:1002E800810001302000B9070030BA3D0800833191
:1002F800362381318231E6228131833137238131BE
:100308008231F62281318231D422813100302000BD
:100318000E180130B7000E08013937060319952960
:100328009629A4294A0803199A299C2901309D294C
:100338000030B5003508CA0000300E180130B7008B
:100348004A080319A829A929C1294208860043088F
:1003580087004831403FB500413FB60036084902A2
:10036800031DB82935084802031CBB29BE292000F3
:100378000E14C02920000E108F2942088600430859
:1003880087004631403FB500413FB6004908360274
:10039800031DD02948083502031CD329D62920007B
:1003A8000E14D82920000E108F298031D52820005E
:1003B800B301B30A01308331292381312000B2000F
:1003C8003208B4000130B2003208B3070B303402EF
:1003D800031CEF29F029F22946150F2A082A0A30AA
:1003E800B2003208A7002F08A9002E08A800330879
:1003F8008231102281310A302000AE070030AF3D33
:100408000130B2003208B3070130B402340A031DC8
:100418000E2A0F2AF32908002000AD002908AC0095
:100428002808AB002E2A2D08230091000130200057
:10043800AA002A08AD072300151420002B088600FF
:100448002C08870023001308810001302000AB0727
:100458000030AC3D0130A702270A031D342A352A93
:10046800172A0800F401F501701C3B2A3C2A402A8F
:100478007208F4077308F53D0130F235F30D890B66
:10048800412A0130F136F00C890B462A70087104B4
:10049800031D4F2A502A382A7508F1007408F00005
:1004A80008002000451D592A5A2A722AC51C5D2AAF
:1004B8005E2A722A0130B802031D632A642A662A5A
:1004C800C510C511390886003A08870001082300BD
:1004D8009A0001302000B9070030BA3D0800F30047
:1004E800F201731C782A792A7D2A7008F1007108B4
:1004F800F2070310F00D0310F30C7308031D852A8F
:10050800862A752A720808007908F5007808F40028
:100518000A30FB007B08F0007A08823173228231AE
:10052800FC007C08F60082319B2282310800200002
:10053800C51D9F2AA02AA12AAD2A8B13C515C5144B
:100548007608F7007708B8007508BA007408B9008B
:100558008B1708007908F5007808F4000A30FB00CA
:100568007B08F0007A08823173228231FC007C0813
:10057800F6008231C122823108002000C51DC52A3B
:10058800C62AC72AD32A8B13C51545147608F7003F
:100598007708B8007508BA007408B9008B17080006
:1005A8000B118B162100951295111515951415141C
:1005B80020009501210011169116200091120B17A9
:1005C8008B1708002300951315138C302000AE00FC
:1005D8002330AF004C30B0000030B1008131DB2156
:1005E800823108002000C50123001E129F111E1130
:1005F8009C010C309B001E131D139D179E161D1683
:1006080008006400800101310130FE020030FF3B28
:100618007F087E04031D062B00347830F400003078
:10062800F5000230FA007A08F60082319B22833105
:1006380008007908F5007808F4000A30FA007A080A
:10064800F60082319B22833108002000A70027088A
:100658002300910015141308080031343034013494
:08066800013401340800080010
:020000040001F9
:04000E00E2C9FFDC68
:00000001FF
