:020000040000FA
:0400000081311F2902
:100008007E1480310B1D09280A2809290030200098
:10001800B7078030B83D0030B93D0030BA3D873071
:1000280038029330393B03303A3B031C1C281D2807
:10003800F6280130C1070030C23D0030F900873092
:10004800FA009330FB000330FC007908B7027A0805
:10005800B83B7B08B93B7C08BA3B05304202A0306C
:1000680003194102031C39283A284828C101C20152
:1000780006304002031C412842284428C001482871
:100088000130F9007908C007A001A101200021086A
:10009800F1002008F0000A30F2000030F30082314D
:1000A800AE2280318C30F9002330FA0070087907CD
:1000B800860071087A3D8700200040080102031C71
:1000C80066286728E5282108F1002008F0000A3092
:1000D800F2000030F3008231AE2280318F30F90017
:1000E8002330FA0070087907860071087A3D870086
:1000F800010820004002031C82288328E5282108E3
:10010800F1002008F0000A30F2000030F3008231DC
:10011800AE2280318D30F9002330FA00700879075B
:10012800860071087A3D8700403FFB00413FFC0094
:100138007C0820004202031DA3287B084102031CFF
:10014800A628A728E5282108F1002008F0000A3091
:10015800F2000030F3008231AE2280319030F90095
:100168002330FA0070087907860071087A3D870005
:10017800403FFB00413FFC007C0820004202031D79
:10018800C7287B0841020318CA28CB28E52821087C
:10019800F1002008F0000A30F2000030F30082314C
:1001A800AE2280318C30F9002330FA0070087907CC
:1001B800FB0071087A3DFC007B082000BB007C082E
:1001C800BC000130A0070030A13D2108803AF900A9
:1001D80080307902031DF2280A302002031CF5281A
:1001E800F6284A2820003D1CFA28FB280829013057
:1001F800F9007908BE0702303E02031C04290529CC
:10020800082983317E2380310B112000911E0D298E
:100218000E29142981314A218031200091121D298B
:10022800111E172918291D2982315A2280312000D0
:1002380011127E1009008131212979308400833020
:1002480085001200C3001200C4001200C50012008D
:10025800C6001200C7008C3084002330850064304B
:10026800FE000030FF0083314F238131FD01333020
:100278008400003085001030FE000030FF0083311C
:100288004F2381317E1020008131BE2923001908B7
:10029800F7007708F80020003D19532954296029F0
:1002A800BD1957295829602923307806031D5D296F
:1002B8005E2960293D15BD293D1D63296429BD2995
:1002C800BD1967296829A6293C307806031D6D29C0
:1002D8006E296F29BD2970307806031D7429752988
:1002E8007629BD2974307806031D7B297C2981294C
:1002F8004030833167238131BD2924307806031DBE
:10030800862987298C294530833142238131BD29AB
:1003180054307806031D912992299729403083315A
:1003280035238131BD2926307806031D9C299D2956
:10033800A5293C08F5003B08F40083315B23813193
:10034800BD29BD293D1CA929AA29A529BE0101301D
:10035800B302031DB029B129B3293D10BD113408DA
:10036800860035088700780881000130B40700301E
:10037800B53D08008331272381318331082381313A
:100388008331832381318331182381318231F622ED
:100398008131003020000E180130B2000E080139FA
:1003A80032060319D829D929E72943080319DD2971
:1003B800DF290130E0290030B0003008C3000030E8
:1003C8000E180130B20043080319EB29EC29042A5E
:1003D8003B0886003C0887004831403FB000413F59
:1003E800B10031084602031DFB2930084502031CF1
:1003F800FE29012A20000E14032A20000E10D229FB
:100408003B0886003C0887004631403FB000413F2A
:10041800B10046083102031D132A45083002031CA7
:10042800162A192A20000E141B2A20000E10D22981
:1004380081311F292000AD01AD0A013083317123BC
:1004480082312000AC002C08AE000130AC002C0832
:10045800AD070B302E02031C322A332A352A3F15EA
:10046800592A2E08AC002B08860087012C08810029
:10047800522A0A30AC002C08A2002A08A400290835
:10048800A3002D088231882282310A302000A90772
:100498000030AA3D0130AC002C08AD070130AE0297
:1004A8002E0A031D582A592A3D2A080020003D1DFE
:1004B8005E2A5F2A872ABD1C622A632A872A01309E
:1004C800B302031D682A692A7B2A21001112200021
:1004D800BD102100111E722A2000BD142000BD1875
:1004E800762A792A2000BD157B2A2000BD11340800
:1004F800860035088700010823009A000130200093
:10050800B4070030B53D08002000A8002408A70063
:100518002308A600A62A28082300910001302000FD
:10052800A5002508A8072300151420002608860022
:100538002708870023001308810001302000A60740
:100548000030A73D0130A202220A031DAC2AAD2AC1
:100558008F2A0800F401F501701CB32AB42AB82ABE
:100568007208F4077308F53D0130F235F30D890B75
:10057800B92A0130F136F00C890BBE2A70087104D3
:10058800031DC72AC82AB02A7508F1007408F000AC
:1005980008002000BD1DD12AD22AD32AE12A8B13B4
:1005A800BD15BD147208F3007308B3007108B500D7
:1005B8007008B400210011168B170800F200200003
:1005C800BD1DE72AE82AE92AF52A8B13BD153D1433
:1005D8007008F1007108B3007208B4000030B5006B
:1005E8008B1708000B118B16210095129511151504
:1005F8009514151420009501210011129116200060
:1006080091120B178B1708002300951315138C30C4
:100618002000A9002330AA004730AF002F08AB0004
:1006280082311E22833108002000BD0123001E12E2
:100638009F111E119C010C309B001E131D139D174A
:100648009E161D160800FF3021008C000130230083
:100658008C00BE3021008E00FE308F0023008F01F9
:100668000800F5007508F0000030F1000330F400D0
:100678007408F2008231CD2283310800F500750834
:10068800F0000030F1000230F4007408F20082310A
:10069800CD22833108006400800101310130FE025F
:1006A8000030FF3B7F087E04031D502B0034750883
:1006B800F1007408F0000A30F6007608F200823182
:1006C800CD2283310800F4000330F3007308F000F2
:1006D80074088231E222833108002000A200220837
:1006E8002300910015141308080001340134313433
:1006F800303401342000BD113D10BE01080008004F
:020000040001F9
:04000E00E2C9FFDC68
:00000001FF
