:020000040000FA
:040000008031EA2839
:100008007E1480310B1D09280A28D42800302000CE
:10001800CE078030CF3D0030D03D0030D13D873015
:100028004F029330503B0330513B031C1C281D28C2
:1000380048280130DA070030DB3D0030B90087304E
:10004800BA009330BB000330BC003908CE023A082E
:10005800CF3B3B08D03B3C08D13B05305B02A0308E
:1000680003195A02031C39283A284828DA01DB0107
:1000780006305902031C412842284428D90148283F
:100088000130B9003908D907551C4B284C28592884
:100098000130B9003908D60702305602031C55282A
:1000A8005628592883314B2380312000BD01BE01D9
:1000B8000A302000B9003908F0003D088231A0223A
:1000C8008031223E86008701200059080102031C66
:1000D8006E286F28C2280A30B9003908F0003D0898
:1000E8008231A0228031233E86008701010820004A
:1000F8005902031C80288128C2280A30B90039080F
:10010800F0003D088231A0228031243E860087011C
:10011800403F2000BA00413FBB003B085B02031D83
:1001280097283A085A02031C9A289B28C2280A30A2
:10013800B9003908F0003D088231A0228031263EFE
:1001480086008701403F2000BA00413FBB003B08C2
:100158005B02031DB1283A085A020318B428B528CF
:10016800C2280A30B9003908F0003D088231A022BF
:100178008031223E2000BA003A08D8000130BD077D
:100188000030BE3D3E08803AB90080303902031D78
:10019800CF2802303D02031CD228D3285C280B113B
:1001A8002000911ED828D928DF28813105218031E7
:1001B80020009112E828111EE228E328E82882315D
:1001C8001F228031200011127E1009008031EC2896
:1001D800713084008230850020308600003087002E
:1001E800193083313F238031FD014E3084000030C7
:1001F80085000E308331452380317E102000813107
:1002080084292000551909290A291829D5190D29E1
:100218000E291829233023001906031D142915292E
:1002280018292000551583292000551D1C291D2932
:100238008329D51920292129692923001908FB00B8
:100248007B08FC0024307C06031D2B292C2931292E
:100258003630833123238131832954307C06031DB2
:10026800362937293C29593083311923813183298B
:1002780026307C06031D41294229482920005808B8
:1002880083312D23813183293E307C06031D4D297E
:100298004E29582920003808FB007B08F700223037
:1002A8008231DB22813183293C307C06031D5D29A4
:1002B8005E29682920003808FB007B08F7002230F7
:1002C8008231EC22813183298329551C6C296D29BF
:1002D8006829D6010130D202031D732974297629B1
:1002E8005510D51123001908FB002000530886007B
:1002F80087017B0881000130FB007B08D3070800D9
:1003080083314F23813183310C2381318331502351
:1003180081318231FD2281318231C922813100301F
:1003280020000E180130CD000E0801394D060319C2
:100338009E299F29AD2920080319A329A529013041
:10034800A6290030CB004B08A00000300E18013061
:10035800CD0020080319B129B229C9295808083E37
:1003680086008701403FCB00413FCC004C08370254
:10037800031DC0294B083602031CC329C6292000C7
:100388000E14C82920000E1098295808063E860029
:100398008701403FCB00413FCC0037084C02031D8A
:1003A800D72936084B02031CDA29DD2920000E1450
:1003B800DF2920000E1098298031EA282000C70084
:1003C800C801C80A01308331372381312000C500B4
:1003D8004508C9000130C5004508C807033049026F
:1003E800031CF729F829FA2957151E2A4908C500B8
:1003F80044088600870145088100172A0A30C5008D
:100408004508BF004708C6004608C00048088231B2
:100418004C2281310A302000C5004508C707013049
:10042800C5004508C8070130C902490A031D1D2A2D
:100438001E2A022A08002000551D232A242A4B2A96
:10044800D51C272A282A4B2A0130D202031D2D2A1F
:100458002E2A402A210011122000D5102100111E39
:10046800372A2000D5142000D5183B2A3E2A200020
:10047800D515402A2000D5115308860087010108A8
:1004880023009A000130F00070082000D30708000C
:100498002000C2004008C1004108C300692A420880
:1004A8002300910001302000C1004108C207230049
:1004B800151413082000C10043088600870141086D
:1004C80081000130C1004108C3070130BF023F0A63
:1004D800031D6F2A702A532A08000134013400349E
:1004E8000034003400340A3400340034003400345A
:1004F8000034003400340A34003414340034013435
:10050800003401340034313430340134F600200032
:10051800D51D8F2A902A912A9F2A8B13D515D51479
:100528007408F5007508D2007608F5007508D30040
:10053800210011168B170800F300F201731CA52A7D
:10054800A62AAA2A7008F1007108F2070310F00D14
:100558000310F30C7308031DB22AB32AA22A7208E7
:100568000800F6002000D51DBA2ABB2ABC2AC82AD2
:100578008B13D51555147408F5007508D200760844
:10058800F5007508D3008B1708000B118B16210096
:100598009512951115159514151420009501210033
:1005A80011129116200091120B178B170800FA00F0
:1005B8000A30F8007808F00077088231A0228231EA
:1005C800F9007908F4007A0882318A228231080019
:1005D800FA000A30F8007808F00077088231A02283
:1005E8008231F9007908F4007A088231B522823123
:1005F80008002000D50123001E129F111E119C0126
:100608000C309B001E131D139D179E161D16080007
:1006180023009513151338302000CA004A08C40077
:1006280022308131E22183310800F8000330F700DD
:100638007708F400780882318A2283310800F800AC
:100648000230F7007708F400780882318A22833173
:100658000800F8000A30F7007708F40078088231BB
:100668008A22833108002000BF003F082300910040
:10067800151413080800FE0012001E00FE0B402B84
:100688000034640080010131890B462B00342000BE
:0A069800D5115510080008000800F5
:020000040001F9
:04000E00E2C9FFDC68
:00000001FF
