:020000040000FA
:0400000080318228A1
:100008007E14803101302000A2070030A33DFA01A0
:10001800FB017B08F1007A08F0000930F20000309B
:10002800F30081310B2180319730F6002330F7003F
:100038007008760786007108773D8700403FF80012
:10004800413FF900790820002102031D2D28780876
:100058002002031C302831286F287B08F1007A0819
:10006800F0000930F2000030F30081310B218031BB
:100078009930F6002330F70070087607860071087B
:10008800773D8700403FF800413FF900790820009C
:100098002102031D512878082002031854285528E6
:1000A8006F287B08F1007A08F0000930F200003070
:1000B800F30081310B2180319630F6002330F700B0
:1000C80070087607F8007108773DF9007808200075
:1000D800A4007908A5000130FA070030FB3D7B0831
:1000E800803AF60080307602031D7C280A307A02B6
:1000F800031C7F2880280D287E1009008031842861
:10010800813138218031AC0096308400233085005D
:100118005A30FE000030FF0081312A218031FC0175
:10012800A001A101A201A301A401A5017E10200044
:1001380080319E2881313921803181313B218031C4
:1001480081313D21803181313C21803181313A2119
:100158008031003020000E180130AA00813136218C
:1001680080312000A6002608AB000E0801392A06B7
:100178000319BF28C028CE282C080319C428C6286C
:100188000130C7280030A6002608AC0000300E1841
:100198000130AA002C080319D228D328EE282408F5
:1001A8008600250887004731403FA600413FA70049
:1001B8002B08A800A90127082902031DE5282608FD
:1001C8002802031CE828EB2820000E14ED28200044
:1001D8000E10B2282B08A600A701240886002508BF
:1001E80087004531403FA800413FA9002708290260
:1001F800031D002926082802031C032906292000BC
:100208000E14082920000E10B22880318228F4012B
:10021800F501701C1029112915297208F4077308B3
:10022800F53D0130F235F30D890B16290130F13611
:10023800F00C890B1B2970087104031D242925293A
:100248000D297508F1007408F000080064008001A9
:1002580001310130FE020030FF3B7F087E04031DA0
:100268002B29003400300800013408000800080079
:040278000800080072
:020000040001F9
:04000E00E2C9FFDC68
:00000001FF
